:100000000C9482000C94B3010C9494000C94940012
:100010000C9494000C9494000C9494000C94940010
:100020000C9494000C9494000C9494000C94F6009E
:100030000C9494000C9494000C9494000C949400F0
:100040000C9494000C9494000C9494000C949400E0
:100050000C9494000C9494000C9494000C949400D0
:100060000C9494000C9494000C9494000C949400C0
:100070000C9494000C9494000C9494000C949400B0
:100080000C9494000C9494000C9494000C949400A0
:100090000C9494000C9494000C9494000C94940090
:1000A0000C9494000C9494000C9494000C94940080
:1000B0000C9494000C9494000C9494000C94940070
:1000C0000C9494000C9494000C949400FFFC3FFF5B
:1000D000000003FF07FFFFE0003FFFFFF803C3FF3F
:1000E000F83FFC1FFFFFFC1F003C03FFFFFFFFFF6B
:1000F000F83FFFFFFFFFC3FF0003C000FFFFFFFF4C
:100100000000000011241FBECFEFD8E0DEBFCDBF3E
:1001100021E0A0E0B1E001C01D92AA30B207E1F7F2
:100120000E94D2010C9482020C94000020E03DC099
:10013000382F317080FF08C09091000190FF04C0FB
:1001400092B1916092B903C092B19E7F92B992B17F
:10015000926092B992B19D7F92B9332341F0909110
:10016000000191FF04C092B1916092B903C092B1B5
:100170009E7F92B992B1926092B992B19D7F92B9ED
:10018000332341F09091000192FF04C092B191603D
:1001900092B903C092B19E7F92B992B1926092B926
:1001A00092B19D7F92B985952F5F283008F208950E
:1001B00082B1886082B982B1877F82B90895CF9376
:1001C000DF93880F880FD3E0D80FC0E00AC0ED2F6F
:1001D000F0E0EC1BF109E453FF4F84910E9496007C
:1001E000CF5FC430A0F3DF91CF9108951F920F929B
:1001F0000FB60F9211248F929F92AF92BF92CF921F
:10020000DF92EF92FF920F932F933F934F935F9361
:100210006F937F938F939F93AF93BF93CF93EF93FE
:10022000FF93A89580910901882349F180910801E5
:10023000811125C04A9B10C0809104019091050155
:10024000A0910601B09107010B97A105B10520F01F
:1002500081E08093080113C0809104019091050111
:10026000A0910601B09107010196A11DB11D8093D7
:10027000040190930501A0930601B09307018091BA
:10028000020190910301009751F02091080122236F
:1002900031F00197909303018093020149C080914E
:1002A0000801882309F444C082E190E0909303019F
:1002B0008093020180910101811120C060910401AD
:1002C00070910501809106019091070129E33EE8B4
:1002D00043EE58E30E94210200E20E944E02822E69
:1002E000932EA42EB52EB694A79497948794B69483
:1002F000A794979487948092010103C081508093C2
:10030000010180910101CDEC8C9FC12D1124C69576
:10031000C695C6952C2F220F922F990F990F920FE9
:10032000891B0E94DF008C2F0E94DF000E94D800F2
:10033000FF91EF91CF91BF91AF919F918F917F915D
:100340006F915F914F913F912F910F91FF90EF909F
:10035000DF90CF90BF90AF909F908F900F900FBE87
:100360000F901F9018951F920F920FB60F921124A5
:100370008F938091080181110FC080910901811133
:100380000BC0109204011092050110920601109208
:10039000070181E0809309018F910F900FBE0F90AC
:1003A0001F90189599E288E10FB6F894A89580936C
:1003B00060000FBE9093600084E082B98FE981B93C
:1003C0008DB381608DBBE9E6F0E08081826080833F
:1003D000E6EBF0E080818062808382E08093B10070
:1003E000C1E0C09370002FEF80E792E02150804081
:1003F0009040E1F700C0000087E0809300018BE0AF
:100400000E94DF008BE00E94DF000E94D80082B1D2
:100410008B7F82B92FEF89E698E121508040904090
:10042000E1F700C00000C093000178942FEF84E34F
:100430009CE0215080409040E1F700C00000A8956A
:10044000F5CFE894DF93CF93FC01DB010E946A02B1
:100450007F936F93E9019A01AC01BF93AF933F93F0
:100460002F93DF010E946A0226F46C1B7D0B820B26
:10047000930B9E01EB01FC010E947902AF91BF91A9
:100480002F913F910E947902BE01CF01F9012F9176
:100490003F91CF91DF91089597FB10F816940008D3
:1004A0000F93083098F00850232F342F452F562FE4
:1004B000672F782F892F902DF4CF059497958795E6
:1004C0007795679557954795379527950A95AAF794
:1004D0000F910895A29FB001B39FC001A39F700D1B
:1004E000811D1124911DB29F700D811D1124911D3C
:1004F00008950E946A02460F571FC81FD91F08F4AB
:0805000031960895F894FFCF35
:00000001FF
