S0190000547261666669635F636F756E74646F776E2E737265630C
S11300000C9482000C949F000C9442010C949F0069
S11300100C949F000C949F000C949F000C949F00E0
S11300200C949F000C949F000C949F000C949402D9
S11300300C949F000C949F000C949F000C949F00C0
S11300400C949F000C949F000C9401010C949F004D
S11300500C949F000C949F000C949F000C949F00A0
S11300600C949F000C949F000C949F000C949F0090
S11300700C949F000C949F000C949F000C949F0080
S11300800C949F000C949F000C949F000C949F0070
S11300900C949F000C949F000C949F000C949F0060
S11300A00C949F000C949F000C949F000C949F0050
S11300B00C949F000C949F000C949F000C949F0040
S11300C00C949F000C949F000C949F00FFFC3FFF36
S11300D0000003FF07FFFFE0003FFFFFF803C3FF3B
S11300E0F83FFC1FFFFFFC1F003C03FFFFFFFFFF67
S11300F0F83FFFFFFFFFC3FF0003C000FFFFFFFF48
S11301000000000011241FBECFEFD8E0DEBFCDBF3A
S113011011E0A0E0B1E0E2EEF7E002C005900D923C
S1130120A230B107D9F721E0A2E0B1E001C01D92ED
S1130130A336B207E1F70E947C030C94EF030C94FE
S1130140000020E03DC0382F317080FF08C090913E
S1130150020190FF04C092B1916092B903C092B1C0
S11301609E7F92B992B1926092B992B19D7F92B9F9
S1130170332341F09091020191FF04C092B1916048
S113018092B903C092B19E7F92B992B1926092B932
S113019092B19D7F92B9332341F09091020192FF75
S11301A004C092B1916092B903C092B19E7F92B99A
S11301B092B1926092B992B19D7F92B985952F5F69
S11301C0283008F2089582B1886082B982B1877FAD
S11301D082B90895CF93DF93880F880FD3E0D80FA7
S11301E0C0E00AC0ED2FF0E0EC1BF109E453FF4F2F
S11301F084910E94A100CF5FC430A0F3DF91CF911E
S113020008951F920F920FB60F9211242F933F93CC
S11302108F939F9380910301909104010196909391
S1130220040180930301039720F1109204011092BA
S113023003018091050190910601019690930601B6
S1130240809305012091010130E02817390720F03F
S113025082B18B7F82B903C082B1846082B98091FC
S1130260050190910601409721F410920601109225
S113027005019F918F913F912F910F900FBE0F9089
S11302801F9018951F920F920FB60F9211244F933F
S11302905F936F937F938F939F93AF93BF93EF93EA
S11302A0FF9380916900883009F086C080915D01D8
S11302B0811110C08091610181110CC0109258010C
S11302C01092590110925A0110925B0181E08093BF
S11302D0610143C0809160018823E9F081E080934B
S11302E05C011092600110924B0110924A018091BE
S11302F0580190915901A0915A01B0915B018093EA
S1130300460190934701A0934801B093490182E0CC
S11303108093020122C010924B0110924A018091F5
S1130320580190915901A0915A01B0915B018093B9
S1130330460190934701A0934801B093490181E09D
S113034080935F011092540110925501109256014E
S11303501092570182E08093020180915E0188230C
S1130360F9F010925E014091500150915101609159
S113037052017091530180914C0190914D01A091D3
S11303804E01B0914F01481759076A077B0741F0A6
S11303908093500190935101A0935201B093530163
S11303A081E080936201E9E6F0E0808188608083E7
S11303B080818460808369C0809169008C3009F0F9
S11303C064C080916101882391F081E080935D0194
S11303D01092610110925C018093600110925001AF
S11303E010925101109252011092530121C01092A7
S11303F04B0110924A018091500190915101A091BA
S11304005201B09153018093460190934701A09308
S11304104801B093490181E080935E0110924C0140
S113042010924D0110924E0110924F0180930201DF
S113043080915F018823F9F010925F014091580187
S11304405091590160915A0170915B01809154015E
S113045090915501A0915601B09157014817590741
S11304606A077B0741F08093580190935901A09348
S11304705A01B0935B0110926201E9E6F0E08081D9
S11304808860808380818B7F8083FF91EF91BF910F
S1130490AF919F918F917F916F915F914F910F9049
S11304A00FBE0F901F901895809179008D3028F021
S11304B082958F7091E1981B01C090E180910001B9
S11304C08F3F21F41092000190930101809100016B
S11304D0E82F082E000CFF0BE75FFE4F90838F5F21
S11304E0809300018C3354F40895E82FF0E0E75F23
S11304F0FE4F9081290F311D8F5F03C080E020E003
S113050030E08C3390F310920001A9E8B8E80E941F
S1130510E00396958795929582958F7089279F70B1
S113052089278093010108951F920F920FB60F92AD
S11305301124CF92DF92EF92FF922F933F934F9328
S11305405F936F937F938F939F93AF93BF93CF9357
S1130550EF93FF93A895809161018823A1F0809186
S1130560580190915901A0915A01B0915B010196F3
S1130570A11DB11D8093580190935901A0935A0174
S1130580B0935B0117C080916001882399F080913A
S1130590500190915101A0915201B09153010196E3
S11305A0A11DB11D8093500190935101A09352015C
S11305B0B093530180915F018823A1F0809154018D
S11305C090915501A0915601B09157010196A11D3A
S11305D0B11D8093540190935501A0935601B0939B
S11305E0570117C080915E01882399F080914C01D6
S11305F090914D01A0914E01B0914F010196A11D22
S1130600B11D80934C0190934D01A0934E01B09382
S11306104F018091460190914701A0914801B0910A
S113062049010097A105B10579F020915C012223CD
S113063059F00197A109B1098093460190934701AC
S1130640A0934801B093490180915C01882369F12A
S1130650C0904601D0904701E0904801F0904901D4
S1130660689413F8F694E794D794C7941694D1F742
S1130670809145018C15C9F0CDECCC9EC12D11247F
S1130680C695C695C6959C2F990F892F880F880FFC
S1130690890F9C2D981B892F0E94EA008C2F0E94A1
S11306A0EA000E94E300C092450180910701909105
S11306B0080101969093080180930701C09730F0D8
S11306C010920801109207010E945402FF91EF91C9
S11306D0CF91BF91AF919F918F917F916F915F91D6
S11306E04F913F912F91FF90EF90DF90CF900F901B
S11306F00FBE0F901F90189599E288E10FB6F894F9
S1130700A895809360000FBE9093600094E092B926
S11307108FE981B98DB382608DBBE9E6F0E0808119
S11307208860808380818B7F808386E680937C00D1
S113073080EE80937A0090937B008FEB80937E0011
S1130740E6EBF0E080818062808382E08093B100F8
S1130750C1E0C093700085BDC0936E002FEF80E7A9
S113076092E0215080409040E1F700C000000E94D8
S1130770540287E0809302018BE00E94EA008BE040
S11307800E94EA000E94E30082B18B7F82B92FEFBE
S113079089E698E1215080409040E1F700C00000D4
S11307A0C09302018CB382608CBB78942FEF84E3F6
S11307B09CE0215080409040E1F700C00000F6CF5B
S11307C0A29FB001B39FC001A39F700D811D11248E
S11307D0911DB29F700D811D1124911D0895F894EF
S10507E0FFCF45
S10507E2FF1002
S9030000FC
