:100000000C9482000C9494000C94CD010C949400F8
:100010000C9494000C9494000C9494000C94940010
:100020000C9494000C9494000C9494000C94F6009E
:100030000C9494000C9494000C9494000C949400F0
:100040000C9494000C9494000C9494000C949400E0
:100050000C9494000C9494000C9494000C949400D0
:100060000C9494000C9494000C9494000C949400C0
:100070000C9494000C9494000C9494000C949400B0
:100080000C9494000C9494000C9494000C949400A0
:100090000C9494000C9494000C9494000C94940090
:1000A0000C9494000C9494000C9494000C94940080
:1000B0000C9494000C9494000C9494000C94940070
:1000C0000C9494000C9494000C949400FFFC3FFF5B
:1000D000000003FF07FFFFE0003FFFFFF803C3FF3F
:1000E000F83FFC1FFFFFFC1F003C03FFFFFFFFFF6B
:1000F000F83FFFFFFFFFC3FF0003C000FFFFFFFF4C
:100100000000000011241FBECFEFD8E0DEBFCDBF3E
:1001100021E0A0E0B1E001C01D92AF31B207E1F7EC
:100120000E94DF020C9434030C94000020E03DC0D8
:10013000382F317080FF08C09091000190FF04C0FB
:1001400092B1916092B903C092B19E7F92B992B17F
:10015000926092B992B19D7F92B9332341F0909110
:10016000000191FF04C092B1916092B903C092B1B5
:100170009E7F92B992B1926092B992B19D7F92B9ED
:10018000332341F09091000192FF04C092B191603D
:1001900092B903C092B19E7F92B992B1926092B926
:1001A00092B19D7F92B985952F5F283008F208950E
:1001B00082B1886082B982B1877F82B90895CF9376
:1001C000DF93880F880FD3E0D80FC0E00AC0ED2F6F
:1001D000F0E0EC1BF109E453FF4F84910E9496007C
:1001E000CF5FC430A0F3DF91CF9108951F920F929B
:1001F0000FB60F921124CF92DF92EF92FF922F93BE
:100200003F934F935F936F937F938F939F93AF939E
:10021000BF93CF93EF93FF93A89580911D018823FF
:10022000A1F08091140190911501A0911601B09157
:1002300017010196A11DB11D809314019093150122
:10024000A0931601B093170117C080911C01882359
:1002500099F080910C0190910D01A0910E01B09147
:100260000F010196A11DB11D80930C0190930D010A
:10027000A0930E01B0930F0180911B018823A1F080
:100280008091100190911101A0911201B091130180
:100290000196A11DB11D8093100190931101A093AF
:1002A0001201B093130117C080911A01882399F0AD
:1002B0008091080190910901A0910A01B0910B0170
:1002C0000196A11DB11D8093080190930901A0938F
:1002D0000A01B0930B018091020190910301A0915A
:1002E0000401B09105010097A105B10579F02091B5
:1002F0001801222359F00197A109B1098093020145
:1003000090930301A0930401B0930501809118011B
:10031000882369F1C0900201D0900301E0900401AC
:10032000F0900501689413F8F694E794D794C79475
:100330001694D1F7809101018C15C9F0CDECCC9EBB
:10034000C12D1124C695C695C6959C2F990F892F4E
:10035000880F880F890F9C2D981B892F0E94DF0022
:100360008C2F0E94DF000E94D800C0920101FF91F3
:10037000EF91CF91BF91AF919F918F917F916F91AD
:100380005F914F913F912F91FF90EF90DF90CF9031
:100390000F900FBE0F901F9018951F920F920FB6DF
:1003A0000F9211244F935F936F937F938F939F933B
:1003B000AF93BF93EF93FF9380916900883009F06A
:1003C00086C080911901811110C080911D01811199
:1003D0000CC0109214011092150110921601109287
:1003E000170181E080931D0143C080911C01882387
:1003F000E9F081E08093180110921C01109207012E
:10040000109206018091140190911501A09116019E
:10041000B09117018093020190930301A09304010E
:10042000B093050182E08093000122C01092070181
:10043000109206018091140190911501A09116016E
:10044000B09117018093020190930301A0930401DE
:10045000B093050181E080931B011092100110926E
:100460001101109212011092130182E08093000199
:1004700080911A018823F9F010921A0140910C0121
:1004800050910D0160910E0170910F018091080152
:1004900090910901A0910A01B0910B0148175907E9
:1004A0006A077B0741F080930C0190930D01A093A4
:1004B0000E01B0930F0181E080931E01E9E6F0E0A8
:1004C00080818860808380818460808369C080911E
:1004D00069008C3009F064C080911D01882391F07F
:1004E00081E08093190110921D01109218018093F0
:1004F0001C0110920C0110920D0110920E0110922D
:100500000F0121C0109207011092060180910C0189
:1005100090910D01A0910E01B0910F018093020105
:1005200090930301A0930401B093050181E08093AF
:100530001A01109208011092090110920A011092FA
:100540000B018093000180911B018823F9F0109228
:100550001B01409114015091150160911601709199
:1005600017018091100190911101A0911201B09199
:100570001301481759076A077B0741F0809314015C
:1005800090931501A0931601B093170110921E01CC
:10059000E9E6F0E080818860808380818B7F8083C2
:1005A000FF91EF91BF91AF919F918F917F916F914B
:1005B0005F914F910F900FBE0F901F90189599E289
:1005C00088E10FB6F894A895809360000FBE9093D1
:1005D000600084E082B98FE981B98DB382608DBB00
:1005E000E9E6F0E080818860808380818B7F808372
:1005F000E6EBF0E080818062808382E08093B1004E
:10060000C1E0C09370002FEF80E792E0215080405E
:100610009040E1F700C0000087E0809300018BE08C
:100620000E94DF008BE00E94DF000E94D80082B1B0
:100630008B7F82B92FEF89E698E12150804090406E
:10064000E1F700C00000C09300018CB382608CBB56
:1006500078942FEF84E39CE0215080409040E1F7B4
:0C06600000C00000A895F5CFF894FFCF73
:00000001FF
